{
  "address": "0x248A81808c2A67a19Db4E0CFd65050c4B1537c59",
  "abi": [
    {
      "inputs": [],
      "stateMutability": "nonpayable",
      "type": "constructor"
    },
    {
      "inputs": [
        {
          "internalType": "string",
          "name": "_name",
          "type": "string"
        },
        {
          "internalType": "address",
          "name": "_wallet",
          "type": "address"
        }
      ],
      "name": "addSource",
      "outputs": [],
      "stateMutability": "nonpayable",
      "type": "function"
    },
    {
      "inputs": [
        {
          "internalType": "string",
          "name": "_text",
          "type": "string"
        }
      ],
      "name": "addText",
      "outputs": [],
      "stateMutability": "nonpayable",
      "type": "function"
    },
    {
      "inputs": [
        {
          "internalType": "bytes32",
          "name": "",
          "type": "bytes32"
        }
      ],
      "name": "addressToSourceName",
      "outputs": [
        {
          "internalType": "string",
          "name": "",
          "type": "string"
        }
      ],
      "stateMutability": "view",
      "type": "function"
    },
    {
      "inputs": [
        {
          "internalType": "uint256",
          "name": "",
          "type": "uint256"
        }
      ],
      "name": "creditedSources",
      "outputs": [
        {
          "internalType": "bytes32",
          "name": "",
          "type": "bytes32"
        }
      ],
      "stateMutability": "view",
      "type": "function"
    },
    {
      "inputs": [
        {
          "internalType": "address",
          "name": "_wallet",
          "type": "address"
        }
      ],
      "name": "hashAddress",
      "outputs": [
        {
          "internalType": "bytes32",
          "name": "",
          "type": "bytes32"
        }
      ],
      "stateMutability": "pure",
      "type": "function"
    },
    {
      "inputs": [
        {
          "internalType": "string",
          "name": "_text",
          "type": "string"
        }
      ],
      "name": "hashText",
      "outputs": [
        {
          "internalType": "bytes32",
          "name": "",
          "type": "bytes32"
        }
      ],
      "stateMutability": "pure",
      "type": "function"
    },
    {
      "inputs": [
        {
          "internalType": "bytes32",
          "name": "",
          "type": "bytes32"
        }
      ],
      "name": "hashToSource",
      "outputs": [
        {
          "internalType": "bytes32",
          "name": "",
          "type": "bytes32"
        }
      ],
      "stateMutability": "view",
      "type": "function"
    },
    {
      "inputs": [
        {
          "internalType": "bytes32",
          "name": "",
          "type": "bytes32"
        }
      ],
      "name": "idToIndex",
      "outputs": [
        {
          "internalType": "uint256",
          "name": "",
          "type": "uint256"
        }
      ],
      "stateMutability": "view",
      "type": "function"
    },
    {
      "inputs": [
        {
          "internalType": "string",
          "name": "_text",
          "type": "string"
        }
      ],
      "name": "isFake",
      "outputs": [
        {
          "internalType": "bool",
          "name": "",
          "type": "bool"
        }
      ],
      "stateMutability": "view",
      "type": "function"
    }
  ],
  "transactionHash": "0x29796e92f619ee09de8ba44042f6629fbcd6bedbe2c91cadf50be5998a63f0ba",
  "args": [],
  "numDeployments": 2,
  "solcInputHash": "16e8d5dc32353e74c39d294d5ef7de2f",
  "bytecode": "0x608060405234801561001057600080fd5b5033600460006101000a81548173ffffffffffffffffffffffffffffffffffffffff021916908373ffffffffffffffffffffffffffffffffffffffff1602179055506000808060018154018082558091505060019003906000526020600020016000909160001b909190915055610e8a8061008c6000396000f3fe608060405234801561001057600080fd5b50600436106100935760003560e01c80639296dc04116100665780639296dc0414610144578063af7113dc14610160578063c3269c9d14610190578063dbdd3531146101c0578063ee823db1146101f057610093565b80631d2220b8146100985780633aa5fe59146100c8578063469c0361146100f857806346b01ebd14610128575b600080fd5b6100b260048036038101906100ad91906106a1565b610220565b6040516100bf9190610703565b60405180910390f35b6100e260048036038101906100dd919061077c565b610250565b6040516100ef9190610703565b60405180910390f35b610112600480360381019061010d91906107d5565b610280565b60405161011f919061081b565b60405180910390f35b610142600480360381019061013d9190610836565b610298565b005b61015e600480360381019061015991906106a1565b6103a1565b005b61017a600480360381019061017591906108be565b610430565b6040516101879190610703565b60405180910390f35b6101aa60048036038101906101a591906107d5565b610454565b6040516101b7919061096a565b60405180910390f35b6101da60048036038101906101d591906107d5565b6104f4565b6040516101e79190610703565b60405180910390f35b61020a600480360381019061020591906106a1565b61050c565b60405161021791906109a7565b60405180910390f35b60008160405160200161023391906109fe565b604051602081830303815290604052805190602001209050919050565b6000816040516020016102639190610a5d565b604051602081830303815290604052805190602001209050919050565b60026020528060005260406000206000915090505481565b600460009054906101000a900473ffffffffffffffffffffffffffffffffffffffff1673ffffffffffffffffffffffffffffffffffffffff163373ffffffffffffffffffffffffffffffffffffffff1614610328576040517f08c379a000000000000000000000000000000000000000000000000000000000815260040161031f90610aea565b60405180910390fd5b600061033382610250565b9050826001600083815260200190815260200160002090816103559190610d16565b5060008190806001815401808255809150506001900390600052602060002001600090919091909150556000805490506002600083815260200190815260200160002081905550505050565b6000600260006103b033610250565b815260200190815260200160002054116103ff576040517f08c379a00000000000000000000000000000000000000000000000000000000081526004016103f690610e34565b60405180910390fd5b600061040a82610220565b905061041533610250565b60036000838152602001908152602001600020819055505050565b6000818154811061044057600080fd5b906000526020600020016000915090505481565b6001602052806000526040600020600091509050805461047390610b39565b80601f016020809104026020016040519081016040528092919081815260200182805461049f90610b39565b80156104ec5780601f106104c1576101008083540402835291602001916104ec565b820191906000526020600020905b8154815290600101906020018083116104cf57829003601f168201915b505050505081565b60036020528060005260406000206000915090505481565b60008060001b6003600061051f85610220565b815260200190815260200160002054111561053d5760019050610542565b600090505b919050565b6000604051905090565b600080fd5b600080fd5b600080fd5b600080fd5b6000601f19601f8301169050919050565b7f4e487b7100000000000000000000000000000000000000000000000000000000600052604160045260246000fd5b6105ae82610565565b810181811067ffffffffffffffff821117156105cd576105cc610576565b5b80604052505050565b60006105e0610547565b90506105ec82826105a5565b919050565b600067ffffffffffffffff82111561060c5761060b610576565b5b61061582610565565b9050602081019050919050565b82818337600083830152505050565b600061064461063f846105f1565b6105d6565b9050828152602081018484840111156106605761065f610560565b5b61066b848285610622565b509392505050565b600082601f8301126106885761068761055b565b5b8135610698848260208601610631565b91505092915050565b6000602082840312156106b7576106b6610551565b5b600082013567ffffffffffffffff8111156106d5576106d4610556565b5b6106e184828501610673565b91505092915050565b6000819050919050565b6106fd816106ea565b82525050565b600060208201905061071860008301846106f4565b92915050565b600073ffffffffffffffffffffffffffffffffffffffff82169050919050565b60006107498261071e565b9050919050565b6107598161073e565b811461076457600080fd5b50565b60008135905061077681610750565b92915050565b60006020828403121561079257610791610551565b5b60006107a084828501610767565b91505092915050565b6107b2816106ea565b81146107bd57600080fd5b50565b6000813590506107cf816107a9565b92915050565b6000602082840312156107eb576107ea610551565b5b60006107f9848285016107c0565b91505092915050565b6000819050919050565b61081581610802565b82525050565b6000602082019050610830600083018461080c565b92915050565b6000806040838503121561084d5761084c610551565b5b600083013567ffffffffffffffff81111561086b5761086a610556565b5b61087785828601610673565b925050602061088885828601610767565b9150509250929050565b61089b81610802565b81146108a657600080fd5b50565b6000813590506108b881610892565b92915050565b6000602082840312156108d4576108d3610551565b5b60006108e2848285016108a9565b91505092915050565b600081519050919050565b600082825260208201905092915050565b60005b8381101561092557808201518184015260208101905061090a565b60008484015250505050565b600061093c826108eb565b61094681856108f6565b9350610956818560208601610907565b61095f81610565565b840191505092915050565b600060208201905081810360008301526109848184610931565b905092915050565b60008115159050919050565b6109a18161098c565b82525050565b60006020820190506109bc6000830184610998565b92915050565b600081905092915050565b60006109d8826108eb565b6109e281856109c2565b93506109f2818560208601610907565b80840191505092915050565b6000610a0a82846109cd565b915081905092915050565b60008160601b9050919050565b6000610a2d82610a15565b9050919050565b6000610a3f82610a22565b9050919050565b610a57610a528261073e565b610a34565b82525050565b6000610a698284610a46565b60148201915081905092915050565b7f596f7520617265206e6f74207468652061646d696e6973747261746f72202d2060008201527f4e6f7420616c6c6f77656420746f20646f20746869732e000000000000000000602082015250565b6000610ad46037836108f6565b9150610adf82610a78565b604082019050919050565b60006020820190508181036000830152610b0381610ac7565b9050919050565b7f4e487b7100000000000000000000000000000000000000000000000000000000600052602260045260246000fd5b60006002820490506001821680610b5157607f821691505b602082108103610b6457610b63610b0a565b5b50919050565b60008190508160005260206000209050919050565b60006020601f8301049050919050565b600082821b905092915050565b600060088302610bcc7fffffffffffffffffffffffffffffffffffffffffffffffffffffffffffffffff82610b8f565b610bd68683610b8f565b95508019841693508086168417925050509392505050565b6000819050919050565b6000610c13610c0e610c0984610802565b610bee565b610802565b9050919050565b6000819050919050565b610c2d83610bf8565b610c41610c3982610c1a565b848454610b9c565b825550505050565b600090565b610c56610c49565b610c61818484610c24565b505050565b5b81811015610c8557610c7a600082610c4e565b600181019050610c67565b5050565b601f821115610cca57610c9b81610b6a565b610ca484610b7f565b81016020851015610cb3578190505b610cc7610cbf85610b7f565b830182610c66565b50505b505050565b600082821c905092915050565b6000610ced60001984600802610ccf565b1980831691505092915050565b6000610d068383610cdc565b9150826002028217905092915050565b610d1f826108eb565b67ffffffffffffffff811115610d3857610d37610576565b5b610d428254610b39565b610d4d828285610c89565b600060209050601f831160018114610d805760008415610d6e578287015190505b610d788582610cfa565b865550610de0565b601f198416610d8e86610b6a565b60005b82811015610db657848901518255600182019150602085019450602081019050610d91565b86831015610dd35784890151610dcf601f891682610cdc565b8355505b6001600288020188555050505b505050505050565b7f4e6f74206120536f757263652100000000000000000000000000000000000000600082015250565b6000610e1e600d836108f6565b9150610e2982610de8565b602082019050919050565b60006020820190508181036000830152610e4d81610e11565b905091905056fea2646970667358221220e2d6da3969fbf6f03e644727264ccc2e9605016bef231eef8e24b0cd41ae282664736f6c63430008120033",
  "devdoc": {
    "kind": "dev",
    "methods": {},
    "version": 1
  },
  "userdoc": {
    "kind": "user",
    "methods": {},
    "version": 1
  },
  "storageLayout": {
    "storage": [
      {
        "astId": 4,
        "contract": "contracts/MakersApp.sol:MakersApp",
        "label": "creditedSources",
        "offset": 0,
        "slot": "0",
        "type": "t_array(t_bytes32)dyn_storage"
      },
      {
        "astId": 8,
        "contract": "contracts/MakersApp.sol:MakersApp",
        "label": "addressToSourceName",
        "offset": 0,
        "slot": "1",
        "type": "t_mapping(t_bytes32,t_string_storage)"
      },
      {
        "astId": 12,
        "contract": "contracts/MakersApp.sol:MakersApp",
        "label": "idToIndex",
        "offset": 0,
        "slot": "2",
        "type": "t_mapping(t_bytes32,t_uint256)"
      },
      {
        "astId": 16,
        "contract": "contracts/MakersApp.sol:MakersApp",
        "label": "hashToSource",
        "offset": 0,
        "slot": "3",
        "type": "t_mapping(t_bytes32,t_bytes32)"
      },
      {
        "astId": 18,
        "contract": "contracts/MakersApp.sol:MakersApp",
        "label": "owner",
        "offset": 0,
        "slot": "4",
        "type": "t_address"
      }
    ],
    "types": {
      "t_address": {
        "encoding": "inplace",
        "label": "address",
        "numberOfBytes": "20"
      },
      "t_array(t_bytes32)dyn_storage": {
        "base": "t_bytes32",
        "encoding": "dynamic_array",
        "label": "bytes32[]",
        "numberOfBytes": "32"
      },
      "t_bytes32": {
        "encoding": "inplace",
        "label": "bytes32",
        "numberOfBytes": "32"
      },
      "t_mapping(t_bytes32,t_bytes32)": {
        "encoding": "mapping",
        "key": "t_bytes32",
        "label": "mapping(bytes32 => bytes32)",
        "numberOfBytes": "32",
        "value": "t_bytes32"
      },
      "t_mapping(t_bytes32,t_string_storage)": {
        "encoding": "mapping",
        "key": "t_bytes32",
        "label": "mapping(bytes32 => string)",
        "numberOfBytes": "32",
        "value": "t_string_storage"
      },
      "t_mapping(t_bytes32,t_uint256)": {
        "encoding": "mapping",
        "key": "t_bytes32",
        "label": "mapping(bytes32 => uint256)",
        "numberOfBytes": "32",
        "value": "t_uint256"
      },
      "t_string_storage": {
        "encoding": "bytes",
        "label": "string",
        "numberOfBytes": "32"
      },
      "t_uint256": {
        "encoding": "inplace",
        "label": "uint256",
        "numberOfBytes": "32"
      }
    }
  }
}